{
  "_format": "hh-sol-artifact-1",
  "contractName": "WavePortal",
  "sourceName": "contracts/WavePortal.sol",
  "abi": [
    {
      "inputs": [],
      "stateMutability": "payable",
      "type": "constructor"
    },
    {
      "anonymous": false,
      "inputs": [
        {
          "indexed": false,
          "internalType": "address",
          "name": "waver",
          "type": "address"
        },
        {
          "indexed": false,
          "internalType": "uint256",
          "name": "timestamp",
          "type": "uint256"
        },
        {
          "indexed": false,
          "internalType": "string",
          "name": "message",
          "type": "string"
        }
      ],
      "name": "NewWave",
      "type": "event"
    },
    {
      "inputs": [],
      "name": "getAllWaves",
      "outputs": [
        {
          "components": [
            {
              "internalType": "address",
              "name": "waver",
              "type": "address"
            },
            {
              "internalType": "string",
              "name": "message",
              "type": "string"
            },
            {
              "internalType": "uint256",
              "name": "timestamp",
              "type": "uint256"
            }
          ],
          "internalType": "struct WavePortal.Wave[]",
          "name": "",
          "type": "tuple[]"
        }
      ],
      "stateMutability": "view",
      "type": "function"
    },
    {
      "inputs": [],
      "name": "getTotalWaves",
      "outputs": [
        {
          "internalType": "uint256",
          "name": "",
          "type": "uint256"
        }
      ],
      "stateMutability": "view",
      "type": "function"
    },
    {
      "inputs": [
        {
          "internalType": "address",
          "name": "",
          "type": "address"
        }
      ],
      "name": "lastWavedAt",
      "outputs": [
        {
          "internalType": "uint256",
          "name": "",
          "type": "uint256"
        }
      ],
      "stateMutability": "view",
      "type": "function"
    },
    {
      "inputs": [
        {
          "internalType": "address",
          "name": "",
          "type": "address"
        }
      ],
      "name": "numberOfWaveToUser",
      "outputs": [
        {
          "internalType": "uint256",
          "name": "",
          "type": "uint256"
        }
      ],
      "stateMutability": "view",
      "type": "function"
    },
    {
      "inputs": [
        {
          "internalType": "string",
          "name": "_message",
          "type": "string"
        }
      ],
      "name": "wave",
      "outputs": [],
      "stateMutability": "nonpayable",
      "type": "function"
    },
    {
      "inputs": [
        {
          "internalType": "uint256",
          "name": "",
          "type": "uint256"
        }
      ],
      "name": "waves",
      "outputs": [
        {
          "internalType": "address",
          "name": "waver",
          "type": "address"
        },
        {
          "internalType": "string",
          "name": "message",
          "type": "string"
        },
        {
          "internalType": "uint256",
          "name": "timestamp",
          "type": "uint256"
        }
      ],
      "stateMutability": "view",
      "type": "function"
    }
  ],
  "bytecode": "0x608060405262000033604051806060016040528060238152602001620016dd602391396200005b60201b620008321760201c565b60644442620000439190620001a8565b6200004f919062000245565b600181905550620002ec565b620000fb8160405160240162000072919062000168565b6040516020818303038152906040527f41304fac000000000000000000000000000000000000000000000000000000007bffffffffffffffffffffffffffffffffffffffffffffffffffffffff19166020820180517bffffffffffffffffffffffffffffffffffffffffffffffffffffffff8381831617835250505050620000fe60201b60201c565b50565b60008151905060006a636f6e736f6c652e6c6f679050602083016000808483855afa5050505050565b600062000134826200018c565b62000140818562000197565b9350620001528185602086016200020f565b6200015d81620002db565b840191505092915050565b6000602082019050818103600083015262000184818462000127565b905092915050565b600081519050919050565b600082825260208201905092915050565b6000620001b58262000205565b9150620001c28362000205565b9250827fffffffffffffffffffffffffffffffffffffffffffffffffffffffffffffffff03821115620001fa57620001f96200027d565b5b828201905092915050565b6000819050919050565b60005b838110156200022f57808201518184015260208101905062000212565b838111156200023f576000848401525b50505050565b6000620002528262000205565b91506200025f8362000205565b925082620002725762000271620002ac565b5b828206905092915050565b7f4e487b7100000000000000000000000000000000000000000000000000000000600052601160045260246000fd5b7f4e487b7100000000000000000000000000000000000000000000000000000000600052601260045260246000fd5b6000601f19601f8301169050919050565b6113e180620002fc6000396000f3fe608060405234801561001057600080fd5b50600436106100625760003560e01c8063449d46c01461006757806377741237146100835780639a2cdc08146100b3578063a42a4663146100d1578063bd43a90814610101578063c781267a1461011f575b600080fd5b610081600480360381019061007c9190610b8a565b610151565b005b61009d60048036038101906100989190610b61565b610584565b6040516100aa9190610f9c565b60405180910390f35b6100bb61059c565b6040516100c89190610f9c565b60405180910390f35b6100eb60048036038101906100e69190610b61565b6105e7565b6040516100f89190610f9c565b60405180910390f35b6101096105ff565b6040516101169190610e98565b60405180910390f35b61013960048036038101906101349190610bcb565b610750565b60405161014893929190610e1c565b60405180910390f35b426005600360003373ffffffffffffffffffffffffffffffffffffffff1673ffffffffffffffffffffffffffffffffffffffff1681526020019081526020016000205461019e919061107e565b106101de576040517f08c379a00000000000000000000000000000000000000000000000000000000081526004016101d590610f7c565b60405180910390fd5b60016000808282546101f0919061107e565b925050819055506102366040518060400160405280600c81526020017f2573206861732077617665640000000000000000000000000000000000000000815250336108cb565b600460405180606001604052803373ffffffffffffffffffffffffffffffffffffffff16815260200183815260200142815250908060018154018082558091505060019003906000526020600020906003020160009091909190915060008201518160000160006101000a81548173ffffffffffffffffffffffffffffffffffffffff021916908373ffffffffffffffffffffffffffffffffffffffff16021790555060208201518160010190805190602001906102f5929190610a2c565b5060408201518160020155505060646001544244610313919061107e565b61031d919061107e565b61032791906111b5565b600181905550603260015411610473576103766040518060400160405280600681526020017f257320776f6e0000000000000000000000000000000000000000000000000000815250336108cb565b6000655af3107a40009050478111156103c4576040517f08c379a00000000000000000000000000000000000000000000000000000000081526004016103bb90610f5c565b60405180910390fd5b60003373ffffffffffffffffffffffffffffffffffffffff16826040516103ea90610e07565b60006040518083038185875af1925050503d8060008114610427576040519150601f19603f3d011682016040523d82523d6000602084013e61042c565b606091505b5050905080610470576040517f08c379a000000000000000000000000000000000000000000000000000000000815260040161046790610f3c565b60405180910390fd5b50505b6001600260003373ffffffffffffffffffffffffffffffffffffffff1673ffffffffffffffffffffffffffffffffffffffff168152602001908152602001600020546104bf919061107e565b600260003373ffffffffffffffffffffffffffffffffffffffff1673ffffffffffffffffffffffffffffffffffffffff1681526020019081526020016000208190555042600360003373ffffffffffffffffffffffffffffffffffffffff1673ffffffffffffffffffffffffffffffffffffffff168152602001908152602001600020819055507f5f7e16dc676677766a70e9c5628aa6c54ddb8b6e5188e2ae1e1f17f1ffbea71633428360405161057993929190610e5a565b60405180910390a150565b60026020528060005260406000206000915090505481565b60006105df6040518060400160405280601d81526020017f5765206861766520256420746f74616c20776176657320736f20666172000000815250600054610967565b600054905090565b60036020528060005260406000206000915090505481565b60606004805480602002602001604051908101604052809291908181526020016000905b8282101561074757838290600052602060002090600302016040518060600160405290816000820160009054906101000a900473ffffffffffffffffffffffffffffffffffffffff1673ffffffffffffffffffffffffffffffffffffffff1673ffffffffffffffffffffffffffffffffffffffff1681526020016001820180546106ac90611152565b80601f01602080910402602001604051908101604052809291908181526020018280546106d890611152565b80156107255780601f106106fa57610100808354040283529160200191610725565b820191906000526020600020905b81548152906001019060200180831161070857829003601f168201915b5050505050815260200160028201548152505081526020019060010190610623565b50505050905090565b6004818154811061076057600080fd5b90600052602060002090600302016000915090508060000160009054906101000a900473ffffffffffffffffffffffffffffffffffffffff16908060010180546107a990611152565b80601f01602080910402602001604051908101604052809291908181526020018280546107d590611152565b80156108225780601f106107f757610100808354040283529160200191610822565b820191906000526020600020905b81548152906001019060200180831161080557829003601f168201915b5050505050908060020154905083565b6108c8816040516024016108469190610eba565b6040516020818303038152906040527f41304fac000000000000000000000000000000000000000000000000000000007bffffffffffffffffffffffffffffffffffffffffffffffffffffffff19166020820180517bffffffffffffffffffffffffffffffffffffffffffffffffffffffff8381831617835250505050610a03565b50565b61096382826040516024016108e1929190610edc565b6040516020818303038152906040527f319af333000000000000000000000000000000000000000000000000000000007bffffffffffffffffffffffffffffffffffffffffffffffffffffffff19166020820180517bffffffffffffffffffffffffffffffffffffffffffffffffffffffff8381831617835250505050610a03565b5050565b6109ff828260405160240161097d929190610f0c565b6040516020818303038152906040527f9710a9d0000000000000000000000000000000000000000000000000000000007bffffffffffffffffffffffffffffffffffffffffffffffffffffffff19166020820180517bffffffffffffffffffffffffffffffffffffffffffffffffffffffff8381831617835250505050610a03565b5050565b60008151905060006a636f6e736f6c652e6c6f679050602083016000808483855afa5050505050565b828054610a3890611152565b90600052602060002090601f016020900481019282610a5a5760008555610aa1565b82601f10610a7357805160ff1916838001178555610aa1565b82800160010185558215610aa1579182015b82811115610aa0578251825591602001919060010190610a85565b5b509050610aae9190610ab2565b5090565b5b80821115610acb576000816000905550600101610ab3565b5090565b6000610ae2610add84610fdc565b610fb7565b905082815260208101848484011115610afa57600080fd5b610b05848285611110565b509392505050565b600081359050610b1c8161137d565b92915050565b600082601f830112610b3357600080fd5b8135610b43848260208601610acf565b91505092915050565b600081359050610b5b81611394565b92915050565b600060208284031215610b7357600080fd5b6000610b8184828501610b0d565b91505092915050565b600060208284031215610b9c57600080fd5b600082013567ffffffffffffffff811115610bb657600080fd5b610bc284828501610b22565b91505092915050565b600060208284031215610bdd57600080fd5b6000610beb84828501610b4c565b91505092915050565b6000610c008383610d99565b905092915050565b610c11816110d4565b82525050565b610c20816110d4565b82525050565b6000610c318261101d565b610c3b8185611040565b935083602082028501610c4d8561100d565b8060005b85811015610c895784840389528151610c6a8582610bf4565b9450610c7583611033565b925060208a01995050600181019050610c51565b50829750879550505050505092915050565b6000610ca682611028565b610cb0818561105c565b9350610cc081856020860161111f565b610cc9816112a2565b840191505092915050565b6000610cdf82611028565b610ce9818561106d565b9350610cf981856020860161111f565b610d02816112a2565b840191505092915050565b6000610d1a60128361106d565b9150610d25826112b3565b602082019050919050565b6000610d3d60238361106d565b9150610d48826112dc565b604082019050919050565b6000610d6060218361106d565b9150610d6b8261132b565b604082019050919050565b6000610d83600083611051565b9150610d8e8261137a565b600082019050919050565b6000606083016000830151610db16000860182610c08565b5060208301518482036020860152610dc98282610c9b565b9150506040830151610dde6040860182610de9565b508091505092915050565b610df281611106565b82525050565b610e0181611106565b82525050565b6000610e1282610d76565b9150819050919050565b6000606082019050610e316000830186610c17565b8181036020830152610e438185610cd4565b9050610e526040830184610df8565b949350505050565b6000606082019050610e6f6000830186610c17565b610e7c6020830185610df8565b8181036040830152610e8e8184610cd4565b9050949350505050565b60006020820190508181036000830152610eb28184610c26565b905092915050565b60006020820190508181036000830152610ed48184610cd4565b905092915050565b60006040820190508181036000830152610ef68185610cd4565b9050610f056020830184610c17565b9392505050565b60006040820190508181036000830152610f268185610cd4565b9050610f356020830184610df8565b9392505050565b60006020820190508181036000830152610f5581610d0d565b9050919050565b60006020820190508181036000830152610f7581610d30565b9050919050565b60006020820190508181036000830152610f9581610d53565b9050919050565b6000602082019050610fb16000830184610df8565b92915050565b6000610fc1610fd2565b9050610fcd8282611184565b919050565b6000604051905090565b600067ffffffffffffffff821115610ff757610ff6611273565b5b611000826112a2565b9050602081019050919050565b6000819050602082019050919050565b600081519050919050565b600081519050919050565b6000602082019050919050565b600082825260208201905092915050565b600081905092915050565b600082825260208201905092915050565b600082825260208201905092915050565b600061108982611106565b915061109483611106565b9250827fffffffffffffffffffffffffffffffffffffffffffffffffffffffffffffffff038211156110c9576110c86111e6565b5b828201905092915050565b60006110df826110e6565b9050919050565b600073ffffffffffffffffffffffffffffffffffffffff82169050919050565b6000819050919050565b82818337600083830152505050565b60005b8381101561113d578082015181840152602081019050611122565b8381111561114c576000848401525b50505050565b6000600282049050600182168061116a57607f821691505b6020821081141561117e5761117d611244565b5b50919050565b61118d826112a2565b810181811067ffffffffffffffff821117156111ac576111ab611273565b5b80604052505050565b60006111c082611106565b91506111cb83611106565b9250826111db576111da611215565b5b828206905092915050565b7f4e487b7100000000000000000000000000000000000000000000000000000000600052601160045260246000fd5b7f4e487b7100000000000000000000000000000000000000000000000000000000600052601260045260246000fd5b7f4e487b7100000000000000000000000000000000000000000000000000000000600052602260045260246000fd5b7f4e487b7100000000000000000000000000000000000000000000000000000000600052604160045260246000fd5b6000601f19601f8301169050919050565b7f4661696c656420746f2073656e64206574680000000000000000000000000000600082015250565b7f636f6e747261637420646f6573206e6f74206861766520656e6f75676820657460008201527f6865720000000000000000000000000000000000000000000000000000000000602082015250565b7f5761697420666f72203135206d696e7574657320746f2077617665206167616960008201527f6e00000000000000000000000000000000000000000000000000000000000000602082015250565b50565b611386816110d4565b811461139157600080fd5b50565b61139d81611106565b81146113a857600080fd5b5056fea264697066735822122097ce748f74058086f36e4eedeefea32e9bce0eae6c4ff687bf06d4a8078afa6764736f6c63430008040033796f20796f2c2069276d206120636f6e747261637420616e642069276d20736d617274",
  "linkReferences": {},
  "deployedLinkReferences": {}
}