{
  "_format": "hh-sol-artifact-1",
  "contractName": "WavePortal",
  "sourceName": "contracts/WavePortal.sol",
  "abi": [
    {
      "inputs": [],
      "stateMutability": "nonpayable",
      "type": "constructor"
    },
    {
      "anonymous": false,
      "inputs": [
        {
          "indexed": false,
          "internalType": "address",
          "name": "waver",
          "type": "address"
        },
        {
          "indexed": false,
          "internalType": "uint256",
          "name": "timestamp",
          "type": "uint256"
        },
        {
          "indexed": false,
          "internalType": "string",
          "name": "message",
          "type": "string"
        }
      ],
      "name": "NewWave",
      "type": "event"
    },
    {
      "inputs": [],
      "name": "getAllWaves",
      "outputs": [
        {
          "components": [
            {
              "internalType": "address",
              "name": "waver",
              "type": "address"
            },
            {
              "internalType": "string",
              "name": "message",
              "type": "string"
            },
            {
              "internalType": "uint256",
              "name": "timestamp",
              "type": "uint256"
            }
          ],
          "internalType": "struct WavePortal.Wave[]",
          "name": "",
          "type": "tuple[]"
        }
      ],
      "stateMutability": "view",
      "type": "function"
    },
    {
      "inputs": [],
      "name": "getTotalWaves",
      "outputs": [
        {
          "internalType": "uint256",
          "name": "",
          "type": "uint256"
        }
      ],
      "stateMutability": "view",
      "type": "function"
    },
    {
      "inputs": [
        {
          "internalType": "address",
          "name": "",
          "type": "address"
        }
      ],
      "name": "numberOfWaveToUser",
      "outputs": [
        {
          "internalType": "uint256",
          "name": "",
          "type": "uint256"
        }
      ],
      "stateMutability": "view",
      "type": "function"
    },
    {
      "inputs": [
        {
          "internalType": "string",
          "name": "_message",
          "type": "string"
        }
      ],
      "name": "wave",
      "outputs": [],
      "stateMutability": "nonpayable",
      "type": "function"
    },
    {
      "inputs": [
        {
          "internalType": "uint256",
          "name": "",
          "type": "uint256"
        }
      ],
      "name": "waves",
      "outputs": [
        {
          "internalType": "address",
          "name": "waver",
          "type": "address"
        },
        {
          "internalType": "string",
          "name": "message",
          "type": "string"
        },
        {
          "internalType": "uint256",
          "name": "timestamp",
          "type": "uint256"
        }
      ],
      "stateMutability": "view",
      "type": "function"
    }
  ],
  "bytecode": "0x60806040523480156200001157600080fd5b506200004160405180606001604052806023815260200162001100602391396200004760201b6200059c1760201c565b620001db565b620000e7816040516024016200005e919062000154565b6040516020818303038152906040527f41304fac000000000000000000000000000000000000000000000000000000007bffffffffffffffffffffffffffffffffffffffffffffffffffffffff19166020820180517bffffffffffffffffffffffffffffffffffffffffffffffffffffffff8381831617835250505050620000ea60201b60201c565b50565b60008151905060006a636f6e736f6c652e6c6f679050602083016000808483855afa5050505050565b6000620001208262000178565b6200012c818562000183565b93506200013e81856020860162000194565b6200014981620001ca565b840191505092915050565b6000602082019050818103600083015262000170818462000113565b905092915050565b600081519050919050565b600082825260208201905092915050565b60005b83811015620001b457808201518184015260208101905062000197565b83811115620001c4576000848401525b50505050565b6000601f19601f8301169050919050565b610f1580620001eb6000396000f3fe608060405234801561001057600080fd5b50600436106100575760003560e01c8063449d46c01461005c57806377741237146100785780639a2cdc08146100a8578063bd43a908146100c6578063c781267a146100e4575b600080fd5b610076600480360381019061007191906108f4565b610116565b005b610092600480360381019061008d91906108cb565b610306565b60405161009f9190610c05565b60405180910390f35b6100b061031e565b6040516100bd9190610c05565b60405180910390f35b6100ce610369565b6040516100db9190610b61565b60405180910390f35b6100fe60048036038101906100f99190610935565b6104ba565b60405161010d93929190610ae5565b60405180910390f35b60016000808282546101289190610cdc565b9250508190555061016e6040518060400160405280600c81526020017f257320686173207761766564000000000000000000000000000000000000000081525033610635565b600260405180606001604052803373ffffffffffffffffffffffffffffffffffffffff16815260200183815260200142815250908060018154018082558091505060019003906000526020600020906003020160009091909190915060008201518160000160006101000a81548173ffffffffffffffffffffffffffffffffffffffff021916908373ffffffffffffffffffffffffffffffffffffffff160217905550602082015181600101908051906020019061022d929190610796565b5060408201518160020155505060018060003373ffffffffffffffffffffffffffffffffffffffff1673ffffffffffffffffffffffffffffffffffffffff168152602001908152602001600020546102859190610cdc565b600160003373ffffffffffffffffffffffffffffffffffffffff1673ffffffffffffffffffffffffffffffffffffffff168152602001908152602001600020819055507f5f7e16dc676677766a70e9c5628aa6c54ddb8b6e5188e2ae1e1f17f1ffbea7163342836040516102fb93929190610b23565b60405180910390a150565b60016020528060005260406000206000915090505481565b60006103616040518060400160405280601d81526020017f5765206861766520256420746f74616c20776176657320736f206661720000008152506000546106d1565b600054905090565b60606002805480602002602001604051908101604052809291908181526020016000905b828210156104b157838290600052602060002090600302016040518060600160405290816000820160009054906101000a900473ffffffffffffffffffffffffffffffffffffffff1673ffffffffffffffffffffffffffffffffffffffff1673ffffffffffffffffffffffffffffffffffffffff16815260200160018201805461041690610db0565b80601f016020809104026020016040519081016040528092919081815260200182805461044290610db0565b801561048f5780601f106104645761010080835404028352916020019161048f565b820191906000526020600020905b81548152906001019060200180831161047257829003601f168201915b505050505081526020016002820154815250508152602001906001019061038d565b50505050905090565b600281815481106104ca57600080fd5b90600052602060002090600302016000915090508060000160009054906101000a900473ffffffffffffffffffffffffffffffffffffffff169080600101805461051390610db0565b80601f016020809104026020016040519081016040528092919081815260200182805461053f90610db0565b801561058c5780601f106105615761010080835404028352916020019161058c565b820191906000526020600020905b81548152906001019060200180831161056f57829003601f168201915b5050505050908060020154905083565b610632816040516024016105b09190610b83565b6040516020818303038152906040527f41304fac000000000000000000000000000000000000000000000000000000007bffffffffffffffffffffffffffffffffffffffffffffffffffffffff19166020820180517bffffffffffffffffffffffffffffffffffffffffffffffffffffffff838183161783525050505061076d565b50565b6106cd828260405160240161064b929190610ba5565b6040516020818303038152906040527f319af333000000000000000000000000000000000000000000000000000000007bffffffffffffffffffffffffffffffffffffffffffffffffffffffff19166020820180517bffffffffffffffffffffffffffffffffffffffffffffffffffffffff838183161783525050505061076d565b5050565b61076982826040516024016106e7929190610bd5565b6040516020818303038152906040527f9710a9d0000000000000000000000000000000000000000000000000000000007bffffffffffffffffffffffffffffffffffffffffffffffffffffffff19166020820180517bffffffffffffffffffffffffffffffffffffffffffffffffffffffff838183161783525050505061076d565b5050565b60008151905060006a636f6e736f6c652e6c6f679050602083016000808483855afa5050505050565b8280546107a290610db0565b90600052602060002090601f0160209004810192826107c4576000855561080b565b82601f106107dd57805160ff191683800117855561080b565b8280016001018555821561080b579182015b8281111561080a5782518255916020019190600101906107ef565b5b509050610818919061081c565b5090565b5b8082111561083557600081600090555060010161081d565b5090565b600061084c61084784610c45565b610c20565b90508281526020810184848401111561086457600080fd5b61086f848285610d6e565b509392505050565b60008135905061088681610eb1565b92915050565b600082601f83011261089d57600080fd5b81356108ad848260208601610839565b91505092915050565b6000813590506108c581610ec8565b92915050565b6000602082840312156108dd57600080fd5b60006108eb84828501610877565b91505092915050565b60006020828403121561090657600080fd5b600082013567ffffffffffffffff81111561092057600080fd5b61092c8482850161088c565b91505092915050565b60006020828403121561094757600080fd5b6000610955848285016108b6565b91505092915050565b600061096a8383610a77565b905092915050565b61097b81610d32565b82525050565b61098a81610d32565b82525050565b600061099b82610c86565b6109a58185610ca9565b9350836020820285016109b785610c76565b8060005b858110156109f357848403895281516109d4858261095e565b94506109df83610c9c565b925060208a019950506001810190506109bb565b50829750879550505050505092915050565b6000610a1082610c91565b610a1a8185610cba565b9350610a2a818560208601610d7d565b610a3381610ea0565b840191505092915050565b6000610a4982610c91565b610a538185610ccb565b9350610a63818560208601610d7d565b610a6c81610ea0565b840191505092915050565b6000606083016000830151610a8f6000860182610972565b5060208301518482036020860152610aa78282610a05565b9150506040830151610abc6040860182610ac7565b508091505092915050565b610ad081610d64565b82525050565b610adf81610d64565b82525050565b6000606082019050610afa6000830186610981565b8181036020830152610b0c8185610a3e565b9050610b1b6040830184610ad6565b949350505050565b6000606082019050610b386000830186610981565b610b456020830185610ad6565b8181036040830152610b578184610a3e565b9050949350505050565b60006020820190508181036000830152610b7b8184610990565b905092915050565b60006020820190508181036000830152610b9d8184610a3e565b905092915050565b60006040820190508181036000830152610bbf8185610a3e565b9050610bce6020830184610981565b9392505050565b60006040820190508181036000830152610bef8185610a3e565b9050610bfe6020830184610ad6565b9392505050565b6000602082019050610c1a6000830184610ad6565b92915050565b6000610c2a610c3b565b9050610c368282610de2565b919050565b6000604051905090565b600067ffffffffffffffff821115610c6057610c5f610e71565b5b610c6982610ea0565b9050602081019050919050565b6000819050602082019050919050565b600081519050919050565b600081519050919050565b6000602082019050919050565b600082825260208201905092915050565b600082825260208201905092915050565b600082825260208201905092915050565b6000610ce782610d64565b9150610cf283610d64565b9250827fffffffffffffffffffffffffffffffffffffffffffffffffffffffffffffffff03821115610d2757610d26610e13565b5b828201905092915050565b6000610d3d82610d44565b9050919050565b600073ffffffffffffffffffffffffffffffffffffffff82169050919050565b6000819050919050565b82818337600083830152505050565b60005b83811015610d9b578082015181840152602081019050610d80565b83811115610daa576000848401525b50505050565b60006002820490506001821680610dc857607f821691505b60208210811415610ddc57610ddb610e42565b5b50919050565b610deb82610ea0565b810181811067ffffffffffffffff82111715610e0a57610e09610e71565b5b80604052505050565b7f4e487b7100000000000000000000000000000000000000000000000000000000600052601160045260246000fd5b7f4e487b7100000000000000000000000000000000000000000000000000000000600052602260045260246000fd5b7f4e487b7100000000000000000000000000000000000000000000000000000000600052604160045260246000fd5b6000601f19601f8301169050919050565b610eba81610d32565b8114610ec557600080fd5b50565b610ed181610d64565b8114610edc57600080fd5b5056fea264697066735822122069fb27fe76d8a3cecceacb9bfa3272617874d30143f1ad3566af5a81bf876fb964736f6c63430008040033796f20796f2c2069276d206120636f6e747261637420616e642069276d20736d617274",
  "linkReferences": {},
  "deployedLinkReferences": {}
}